{
  "_format": "hh-sol-artifact-1",
  "contractName": "DeWriteIo",
  "sourceName": "contracts/DeWriteIo.sol",
  "abi": [
    {
      "inputs": [],
      "stateMutability": "nonpayable",
      "type": "constructor"
    },
    {
      "anonymous": false,
      "inputs": [
        {
          "indexed": true,
          "internalType": "address",
          "name": "owner",
          "type": "address"
        },
        {
          "indexed": true,
          "internalType": "address",
          "name": "approved",
          "type": "address"
        },
        {
          "indexed": true,
          "internalType": "uint256",
          "name": "tokenId",
          "type": "uint256"
        }
      ],
      "name": "Approval",
      "type": "event"
    },
    {
      "anonymous": false,
      "inputs": [
        {
          "indexed": true,
          "internalType": "address",
          "name": "owner",
          "type": "address"
        },
        {
          "indexed": true,
          "internalType": "address",
          "name": "operator",
          "type": "address"
        },
        {
          "indexed": false,
          "internalType": "bool",
          "name": "approved",
          "type": "bool"
        }
      ],
      "name": "ApprovalForAll",
      "type": "event"
    },
    {
      "anonymous": false,
      "inputs": [
        {
          "indexed": false,
          "internalType": "address",
          "name": "sender",
          "type": "address"
        },
        {
          "indexed": false,
          "internalType": "uint256",
          "name": "tokenId",
          "type": "uint256"
        },
        {
          "indexed": false,
          "internalType": "string",
          "name": "uri",
          "type": "string"
        }
      ],
      "name": "DeWriteMinted",
      "type": "event"
    },
    {
      "anonymous": false,
      "inputs": [
        {
          "indexed": true,
          "internalType": "address",
          "name": "previousOwner",
          "type": "address"
        },
        {
          "indexed": true,
          "internalType": "address",
          "name": "newOwner",
          "type": "address"
        }
      ],
      "name": "OwnershipTransferred",
      "type": "event"
    },
    {
      "anonymous": false,
      "inputs": [
        {
          "indexed": false,
          "internalType": "address",
          "name": "account",
          "type": "address"
        }
      ],
      "name": "Paused",
      "type": "event"
    },
    {
      "anonymous": false,
      "inputs": [
        {
          "indexed": true,
          "internalType": "address",
          "name": "from",
          "type": "address"
        },
        {
          "indexed": true,
          "internalType": "address",
          "name": "to",
          "type": "address"
        },
        {
          "indexed": true,
          "internalType": "uint256",
          "name": "tokenId",
          "type": "uint256"
        }
      ],
      "name": "Transfer",
      "type": "event"
    },
    {
      "anonymous": false,
      "inputs": [
        {
          "indexed": false,
          "internalType": "address",
          "name": "account",
          "type": "address"
        }
      ],
      "name": "Unpaused",
      "type": "event"
    },
    {
      "inputs": [
        {
          "internalType": "address",
          "name": "to",
          "type": "address"
        },
        {
          "internalType": "uint256",
          "name": "tokenId",
          "type": "uint256"
        }
      ],
      "name": "approve",
      "outputs": [],
      "stateMutability": "nonpayable",
      "type": "function"
    },
    {
      "inputs": [
        {
          "internalType": "address",
          "name": "owner",
          "type": "address"
        }
      ],
      "name": "balanceOf",
      "outputs": [
        {
          "internalType": "uint256",
          "name": "",
          "type": "uint256"
        }
      ],
      "stateMutability": "view",
      "type": "function"
    },
    {
      "inputs": [
        {
          "internalType": "uint256",
          "name": "tokenId",
          "type": "uint256"
        }
      ],
      "name": "burn",
      "outputs": [],
      "stateMutability": "nonpayable",
      "type": "function"
    },
    {
      "inputs": [
        {
          "internalType": "uint256",
          "name": "tokenId",
          "type": "uint256"
        }
      ],
      "name": "getApproved",
      "outputs": [
        {
          "internalType": "address",
          "name": "",
          "type": "address"
        }
      ],
      "stateMutability": "view",
      "type": "function"
    },
    {
      "inputs": [
        {
          "internalType": "address",
          "name": "owner",
          "type": "address"
        },
        {
          "internalType": "address",
          "name": "operator",
          "type": "address"
        }
      ],
      "name": "isApprovedForAll",
      "outputs": [
        {
          "internalType": "bool",
          "name": "",
          "type": "bool"
        }
      ],
      "stateMutability": "view",
      "type": "function"
    },
    {
      "inputs": [],
      "name": "name",
      "outputs": [
        {
          "internalType": "string",
          "name": "",
          "type": "string"
        }
      ],
      "stateMutability": "view",
      "type": "function"
    },
    {
      "inputs": [],
      "name": "owner",
      "outputs": [
        {
          "internalType": "address",
          "name": "",
          "type": "address"
        }
      ],
      "stateMutability": "view",
      "type": "function"
    },
    {
      "inputs": [
        {
          "internalType": "uint256",
          "name": "tokenId",
          "type": "uint256"
        }
      ],
      "name": "ownerOf",
      "outputs": [
        {
          "internalType": "address",
          "name": "",
          "type": "address"
        }
      ],
      "stateMutability": "view",
      "type": "function"
    },
    {
      "inputs": [],
      "name": "pause",
      "outputs": [],
      "stateMutability": "nonpayable",
      "type": "function"
    },
    {
      "inputs": [],
      "name": "paused",
      "outputs": [
        {
          "internalType": "bool",
          "name": "",
          "type": "bool"
        }
      ],
      "stateMutability": "view",
      "type": "function"
    },
    {
      "inputs": [],
      "name": "renounceOwnership",
      "outputs": [],
      "stateMutability": "nonpayable",
      "type": "function"
    },
    {
      "inputs": [
        {
          "internalType": "string",
          "name": "uri",
          "type": "string"
        }
      ],
      "name": "safeMint",
      "outputs": [],
      "stateMutability": "nonpayable",
      "type": "function"
    },
    {
      "inputs": [
        {
          "internalType": "address",
          "name": "from",
          "type": "address"
        },
        {
          "internalType": "address",
          "name": "to",
          "type": "address"
        },
        {
          "internalType": "uint256",
          "name": "tokenId",
          "type": "uint256"
        }
      ],
      "name": "safeTransferFrom",
      "outputs": [],
      "stateMutability": "nonpayable",
      "type": "function"
    },
    {
      "inputs": [
        {
          "internalType": "address",
          "name": "from",
          "type": "address"
        },
        {
          "internalType": "address",
          "name": "to",
          "type": "address"
        },
        {
          "internalType": "uint256",
          "name": "tokenId",
          "type": "uint256"
        },
        {
          "internalType": "bytes",
          "name": "_data",
          "type": "bytes"
        }
      ],
      "name": "safeTransferFrom",
      "outputs": [],
      "stateMutability": "nonpayable",
      "type": "function"
    },
    {
      "inputs": [
        {
          "internalType": "address",
          "name": "operator",
          "type": "address"
        },
        {
          "internalType": "bool",
          "name": "approved",
          "type": "bool"
        }
      ],
      "name": "setApprovalForAll",
      "outputs": [],
      "stateMutability": "nonpayable",
      "type": "function"
    },
    {
      "inputs": [
        {
          "internalType": "uint256",
          "name": "tokenId",
          "type": "uint256"
        },
        {
          "internalType": "string",
          "name": "_tokenURI",
          "type": "string"
        }
      ],
      "name": "setTokenURI",
      "outputs": [],
      "stateMutability": "nonpayable",
      "type": "function"
    },
    {
      "inputs": [
        {
          "internalType": "bytes4",
          "name": "interfaceId",
          "type": "bytes4"
        }
      ],
      "name": "supportsInterface",
      "outputs": [
        {
          "internalType": "bool",
          "name": "",
          "type": "bool"
        }
      ],
      "stateMutability": "view",
      "type": "function"
    },
    {
      "inputs": [],
      "name": "symbol",
      "outputs": [
        {
          "internalType": "string",
          "name": "",
          "type": "string"
        }
      ],
      "stateMutability": "view",
      "type": "function"
    },
    {
      "inputs": [
        {
          "internalType": "uint256",
          "name": "index",
          "type": "uint256"
        }
      ],
      "name": "tokenByIndex",
      "outputs": [
        {
          "internalType": "uint256",
          "name": "",
          "type": "uint256"
        }
      ],
      "stateMutability": "view",
      "type": "function"
    },
    {
      "inputs": [
        {
          "internalType": "address",
          "name": "owner",
          "type": "address"
        },
        {
          "internalType": "uint256",
          "name": "index",
          "type": "uint256"
        }
      ],
      "name": "tokenOfOwnerByIndex",
      "outputs": [
        {
          "internalType": "uint256",
          "name": "",
          "type": "uint256"
        }
      ],
      "stateMutability": "view",
      "type": "function"
    },
    {
      "inputs": [
        {
          "internalType": "uint256",
          "name": "tokenId",
          "type": "uint256"
        }
      ],
      "name": "tokenURI",
      "outputs": [
        {
          "internalType": "string",
          "name": "",
          "type": "string"
        }
      ],
      "stateMutability": "view",
      "type": "function"
    },
    {
      "inputs": [],
      "name": "totalSupply",
      "outputs": [
        {
          "internalType": "uint256",
          "name": "",
          "type": "uint256"
        }
      ],
      "stateMutability": "view",
      "type": "function"
    },
    {
      "inputs": [
        {
          "internalType": "address",
          "name": "from",
          "type": "address"
        },
        {
          "internalType": "address",
          "name": "to",
          "type": "address"
        },
        {
          "internalType": "uint256",
          "name": "tokenId",
          "type": "uint256"
        }
      ],
      "name": "transferFrom",
      "outputs": [],
      "stateMutability": "nonpayable",
      "type": "function"
    },
    {
      "inputs": [
        {
          "internalType": "address",
          "name": "newOwner",
          "type": "address"
        }
      ],
      "name": "transferOwnership",
      "outputs": [],
      "stateMutability": "nonpayable",
      "type": "function"
    },
    {
      "inputs": [],
      "name": "unpause",
      "outputs": [],
      "stateMutability": "nonpayable",
      "type": "function"
    }
  ],
  "bytecode": "0x60806040523480156200001157600080fd5b506040518060400160405280600a81526020017f446557726974652e696f000000000000000000000000000000000000000000008152506040518060400160405280600281526020017f4457000000000000000000000000000000000000000000000000000000000000815250816000908051906020019062000096929190620001c1565b508060019080519060200190620000af929190620001c1565b5050506000600b60006101000a81548160ff021916908315150217905550620000ed620000e1620000f360201b60201c565b620000fb60201b60201c565b620002d6565b600033905090565b6000600b60019054906101000a900473ffffffffffffffffffffffffffffffffffffffff16905081600b60016101000a81548173ffffffffffffffffffffffffffffffffffffffff021916908373ffffffffffffffffffffffffffffffffffffffff1602179055508173ffffffffffffffffffffffffffffffffffffffff168173ffffffffffffffffffffffffffffffffffffffff167f8be0079c531659141344cd1fd0a4f28419497f9722a3daafe3b4186f6b6457e060405160405180910390a35050565b828054620001cf9062000271565b90600052602060002090601f016020900481019282620001f357600085556200023f565b82601f106200020e57805160ff19168380011785556200023f565b828001600101855582156200023f579182015b828111156200023e57825182559160200191906001019062000221565b5b5090506200024e919062000252565b5090565b5b808211156200026d57600081600090555060010162000253565b5090565b600060028204905060018216806200028a57607f821691505b60208210811415620002a157620002a0620002a7565b5b50919050565b7f4e487b7100000000000000000000000000000000000000000000000000000000600052602260045260246000fd5b61409d80620002e66000396000f3fe608060405234801561001057600080fd5b50600436106101735760003560e01c80635c975abb116100de5780638da5cb5b11610097578063b88d4fde11610071578063b88d4fde14610410578063c87b56dd1461042c578063e985e9c51461045c578063f2fde38b1461048c57610173565b80638da5cb5b146103b857806395d89b41146103d6578063a22cb465146103f457610173565b80635c975abb1461030a5780636352211e14610328578063695850fb1461035857806370a0823114610374578063715018a6146103a45780638456cb59146103ae57610173565b806323b872dd1161013057806323b872dd1461024c5780632f745c59146102685780633f4ba83a1461029857806342842e0e146102a257806342966c68146102be5780634f6ccce7146102da57610173565b806301ffc9a71461017857806306fdde03146101a8578063081812fc146101c6578063095ea7b3146101f6578063162094c41461021257806318160ddd1461022e575b600080fd5b610192600480360381019061018d9190612c7f565b6104a8565b60405161019f9190613270565b60405180910390f35b6101b06104ba565b6040516101bd919061328b565b60405180910390f35b6101e060048036038101906101db9190612d12565b61054c565b6040516101ed91906131cb565b60405180910390f35b610210600480360381019061020b9190612c43565b6105d1565b005b61022c60048036038101906102279190612d3b565b6106e9565b005b61023661076d565b60405161024391906135ad565b60405180910390f35b61026660048036038101906102619190612b3d565b61077a565b005b610282600480360381019061027d9190612c43565b6107da565b60405161028f91906135ad565b60405180910390f35b6102a061087f565b005b6102bc60048036038101906102b79190612b3d565b610905565b005b6102d860048036038101906102d39190612d12565b610925565b005b6102f460048036038101906102ef9190612d12565b610981565b60405161030191906135ad565b60405180910390f35b610312610a18565b60405161031f9190613270565b60405180910390f35b610342600480360381019061033d9190612d12565b610a2f565b60405161034f91906131cb565b60405180910390f35b610372600480360381019061036d9190612cd1565b610ae1565b005b61038e60048036038101906103899190612ad8565b610b4c565b60405161039b91906135ad565b60405180910390f35b6103ac610c04565b005b6103b6610c8c565b005b6103c0610d12565b6040516103cd91906131cb565b60405180910390f35b6103de610d3c565b6040516103eb919061328b565b60405180910390f35b61040e60048036038101906104099190612c07565b610dce565b005b61042a60048036038101906104259190612b8c565b610de4565b005b61044660048036038101906104419190612d12565b610e46565b604051610453919061328b565b60405180910390f35b61047660048036038101906104719190612b01565b610e58565b6040516104839190613270565b60405180910390f35b6104a660048036038101906104a19190612ad8565b610eec565b005b60006104b382610fe4565b9050919050565b6060600080546104c990613803565b80601f01602080910402602001604051908101604052809291908181526020018280546104f590613803565b80156105425780601f1061051757610100808354040283529160200191610542565b820191906000526020600020905b81548152906001019060200180831161052557829003601f168201915b5050505050905090565b60006105578261105e565b610596576040517f08c379a000000000000000000000000000000000000000000000000000000000815260040161058d906134ad565b60405180910390fd5b6004600083815260200190815260200160002060009054906101000a900473ffffffffffffffffffffffffffffffffffffffff169050919050565b60006105dc82610a2f565b90508073ffffffffffffffffffffffffffffffffffffffff168373ffffffffffffffffffffffffffffffffffffffff16141561064d576040517f08c379a00000000000000000000000000000000000000000000000000000000081526004016106449061350d565b60405180910390fd5b8073ffffffffffffffffffffffffffffffffffffffff1661066c6110ca565b73ffffffffffffffffffffffffffffffffffffffff16148061069b575061069a816106956110ca565b610e58565b5b6106da576040517f08c379a00000000000000000000000000000000000000000000000000000000081526004016106d1906133ed565b60405180910390fd5b6106e483836110d2565b505050565b3373ffffffffffffffffffffffffffffffffffffffff1661070983610a2f565b73ffffffffffffffffffffffffffffffffffffffff161461075f576040517f08c379a00000000000000000000000000000000000000000000000000000000081526004016107569061352d565b60405180910390fd5b610769828261118b565b5050565b6000600880549050905090565b61078b6107856110ca565b826111ff565b6107ca576040517f08c379a00000000000000000000000000000000000000000000000000000000081526004016107c19061354d565b60405180910390fd5b6107d58383836112dd565b505050565b60006107e583610b4c565b8210610826576040517f08c379a000000000000000000000000000000000000000000000000000000000815260040161081d906132cd565b60405180910390fd5b600660008473ffffffffffffffffffffffffffffffffffffffff1673ffffffffffffffffffffffffffffffffffffffff168152602001908152602001600020600083815260200190815260200160002054905092915050565b6108876110ca565b73ffffffffffffffffffffffffffffffffffffffff166108a5610d12565b73ffffffffffffffffffffffffffffffffffffffff16146108fb576040517f08c379a00000000000000000000000000000000000000000000000000000000081526004016108f2906134cd565b60405180910390fd5b610903611544565b565b61092083838360405180602001604052806000815250610de4565b505050565b6109366109306110ca565b826111ff565b610975576040517f08c379a000000000000000000000000000000000000000000000000000000000815260040161096c9061358d565b60405180910390fd5b61097e816115e6565b50565b600061098b61076d565b82106109cc576040517f08c379a00000000000000000000000000000000000000000000000000000000081526004016109c39061356d565b60405180910390fd5b60088281548110610a06577f4e487b7100000000000000000000000000000000000000000000000000000000600052603260045260246000fd5b90600052602060002001549050919050565b6000600b60009054906101000a900460ff16905090565b6000806002600084815260200190815260200160002060009054906101000a900473ffffffffffffffffffffffffffffffffffffffff169050600073ffffffffffffffffffffffffffffffffffffffff168173ffffffffffffffffffffffffffffffffffffffff161415610ad8576040517f08c379a0000000000000000000000000000000000000000000000000000000008152600401610acf9061342d565b60405180910390fd5b80915050919050565b6000610aed600c6115f2565b9050610af9600c611600565b610b033382611616565b610b0d818361118b565b7f03c40b527b9bdd9a77d282fb55fcddefd92225803d6ca8a0183739a1b3622b95338284604051610b4093929190613232565b60405180910390a15050565b60008073ffffffffffffffffffffffffffffffffffffffff168273ffffffffffffffffffffffffffffffffffffffff161415610bbd576040517f08c379a0000000000000000000000000000000000000000000000000000000008152600401610bb49061340d565b60405180910390fd5b600360008373ffffffffffffffffffffffffffffffffffffffff1673ffffffffffffffffffffffffffffffffffffffff168152602001908152602001600020549050919050565b610c0c6110ca565b73ffffffffffffffffffffffffffffffffffffffff16610c2a610d12565b73ffffffffffffffffffffffffffffffffffffffff1614610c80576040517f08c379a0000000000000000000000000000000000000000000000000000000008152600401610c77906134cd565b60405180910390fd5b610c8a6000611634565b565b610c946110ca565b73ffffffffffffffffffffffffffffffffffffffff16610cb2610d12565b73ffffffffffffffffffffffffffffffffffffffff1614610d08576040517f08c379a0000000000000000000000000000000000000000000000000000000008152600401610cff906134cd565b60405180910390fd5b610d106116fa565b565b6000600b60019054906101000a900473ffffffffffffffffffffffffffffffffffffffff16905090565b606060018054610d4b90613803565b80601f0160208091040260200160405190810160405280929190818152602001828054610d7790613803565b8015610dc45780601f10610d9957610100808354040283529160200191610dc4565b820191906000526020600020905b815481529060010190602001808311610da757829003601f168201915b5050505050905090565b610de0610dd96110ca565b838361179d565b5050565b610df5610def6110ca565b836111ff565b610e34576040517f08c379a0000000000000000000000000000000000000000000000000000000008152600401610e2b9061354d565b60405180910390fd5b610e408484848461190a565b50505050565b6060610e5182611966565b9050919050565b6000600560008473ffffffffffffffffffffffffffffffffffffffff1673ffffffffffffffffffffffffffffffffffffffff16815260200190815260200160002060008373ffffffffffffffffffffffffffffffffffffffff1673ffffffffffffffffffffffffffffffffffffffff16815260200190815260200160002060009054906101000a900460ff16905092915050565b610ef46110ca565b73ffffffffffffffffffffffffffffffffffffffff16610f12610d12565b73ffffffffffffffffffffffffffffffffffffffff1614610f68576040517f08c379a0000000000000000000000000000000000000000000000000000000008152600401610f5f906134cd565b60405180910390fd5b600073ffffffffffffffffffffffffffffffffffffffff168173ffffffffffffffffffffffffffffffffffffffff161415610fd8576040517f08c379a0000000000000000000000000000000000000000000000000000000008152600401610fcf9061330d565b60405180910390fd5b610fe181611634565b50565b60007f780e9d63000000000000000000000000000000000000000000000000000000007bffffffffffffffffffffffffffffffffffffffffffffffffffffffff1916827bffffffffffffffffffffffffffffffffffffffffffffffffffffffff19161480611057575061105682611ab8565b5b9050919050565b60008073ffffffffffffffffffffffffffffffffffffffff166002600084815260200190815260200160002060009054906101000a900473ffffffffffffffffffffffffffffffffffffffff1673ffffffffffffffffffffffffffffffffffffffff1614159050919050565b600033905090565b816004600083815260200190815260200160002060006101000a81548173ffffffffffffffffffffffffffffffffffffffff021916908373ffffffffffffffffffffffffffffffffffffffff160217905550808273ffffffffffffffffffffffffffffffffffffffff1661114583610a2f565b73ffffffffffffffffffffffffffffffffffffffff167f8c5be1e5ebec7d5bd14f71427d1e84f3dd0314c0f7b2291e5b200ac8c7c3b92560405160405180910390a45050565b6111948261105e565b6111d3576040517f08c379a00000000000000000000000000000000000000000000000000000000081526004016111ca9061344d565b60405180910390fd5b80600a600084815260200190815260200160002090805190602001906111fa9291906128bc565b505050565b600061120a8261105e565b611249576040517f08c379a0000000000000000000000000000000000000000000000000000000008152600401611240906133ad565b60405180910390fd5b600061125483610a2f565b90508073ffffffffffffffffffffffffffffffffffffffff168473ffffffffffffffffffffffffffffffffffffffff16148061129657506112958185610e58565b5b806112d457508373ffffffffffffffffffffffffffffffffffffffff166112bc8461054c565b73ffffffffffffffffffffffffffffffffffffffff16145b91505092915050565b8273ffffffffffffffffffffffffffffffffffffffff166112fd82610a2f565b73ffffffffffffffffffffffffffffffffffffffff1614611353576040517f08c379a000000000000000000000000000000000000000000000000000000000815260040161134a9061332d565b60405180910390fd5b600073ffffffffffffffffffffffffffffffffffffffff168273ffffffffffffffffffffffffffffffffffffffff1614156113c3576040517f08c379a00000000000000000000000000000000000000000000000000000000081526004016113ba9061336d565b60405180910390fd5b6113ce838383611b9a565b6113d96000826110d2565b6001600360008573ffffffffffffffffffffffffffffffffffffffff1673ffffffffffffffffffffffffffffffffffffffff16815260200190815260200160002060008282546114299190613719565b925050819055506001600360008473ffffffffffffffffffffffffffffffffffffffff1673ffffffffffffffffffffffffffffffffffffffff16815260200190815260200160002060008282546114809190613692565b92505081905550816002600083815260200190815260200160002060006101000a81548173ffffffffffffffffffffffffffffffffffffffff021916908373ffffffffffffffffffffffffffffffffffffffff160217905550808273ffffffffffffffffffffffffffffffffffffffff168473ffffffffffffffffffffffffffffffffffffffff167fddf252ad1be2c89b69c2b068fc378daa952ba7f163c4a11628f55a4df523b3ef60405160405180910390a461153f838383611bf2565b505050565b61154c610a18565b61158b576040517f08c379a0000000000000000000000000000000000000000000000000000000008152600401611582906132ad565b60405180910390fd5b6000600b60006101000a81548160ff0219169083151502179055507f5db9ee0a495bf2e6ff9c91a7834c1ba4fdd244a5e8aa4e537bd38aeae4b073aa6115cf6110ca565b6040516115dc91906131cb565b60405180910390a1565b6115ef81611bf7565b50565b600081600001549050919050565b6001816000016000828254019250508190555050565b611630828260405180602001604052806000815250611c4a565b5050565b6000600b60019054906101000a900473ffffffffffffffffffffffffffffffffffffffff16905081600b60016101000a81548173ffffffffffffffffffffffffffffffffffffffff021916908373ffffffffffffffffffffffffffffffffffffffff1602179055508173ffffffffffffffffffffffffffffffffffffffff168173ffffffffffffffffffffffffffffffffffffffff167f8be0079c531659141344cd1fd0a4f28419497f9722a3daafe3b4186f6b6457e060405160405180910390a35050565b611702610a18565b15611742576040517f08c379a0000000000000000000000000000000000000000000000000000000008152600401611739906133cd565b60405180910390fd5b6001600b60006101000a81548160ff0219169083151502179055507f62e78cea01bee320cd4e420270b5ea74000d11b0c9f74754ebdbfc544b05a2586117866110ca565b60405161179391906131cb565b60405180910390a1565b8173ffffffffffffffffffffffffffffffffffffffff168373ffffffffffffffffffffffffffffffffffffffff16141561180c576040517f08c379a00000000000000000000000000000000000000000000000000000000081526004016118039061338d565b60405180910390fd5b80600560008573ffffffffffffffffffffffffffffffffffffffff1673ffffffffffffffffffffffffffffffffffffffff16815260200190815260200160002060008473ffffffffffffffffffffffffffffffffffffffff1673ffffffffffffffffffffffffffffffffffffffff16815260200190815260200160002060006101000a81548160ff0219169083151502179055508173ffffffffffffffffffffffffffffffffffffffff168373ffffffffffffffffffffffffffffffffffffffff167f17307eab39ab6107e8899845ad3d59bd9653f200f220920489ca2b5937696c31836040516118fd9190613270565b60405180910390a3505050565b6119158484846112dd565b61192184848484611ca5565b611960576040517f08c379a0000000000000000000000000000000000000000000000000000000008152600401611957906132ed565b60405180910390fd5b50505050565b60606119718261105e565b6119b0576040517f08c379a00000000000000000000000000000000000000000000000000000000081526004016119a79061348d565b60405180910390fd5b6000600a600084815260200190815260200160002080546119d090613803565b80601f01602080910402602001604051908101604052809291908181526020018280546119fc90613803565b8015611a495780601f10611a1e57610100808354040283529160200191611a49565b820191906000526020600020905b815481529060010190602001808311611a2c57829003601f168201915b505050505090506000611a5a611e3c565b9050600081511415611a70578192505050611ab3565b600082511115611aa5578082604051602001611a8d9291906131a7565b60405160208183030381529060405292505050611ab3565b611aae84611e53565b925050505b919050565b60007f80ac58cd000000000000000000000000000000000000000000000000000000007bffffffffffffffffffffffffffffffffffffffffffffffffffffffff1916827bffffffffffffffffffffffffffffffffffffffffffffffffffffffff19161480611b8357507f5b5e139f000000000000000000000000000000000000000000000000000000007bffffffffffffffffffffffffffffffffffffffffffffffffffffffff1916827bffffffffffffffffffffffffffffffffffffffffffffffffffffffff1916145b80611b935750611b9282611efa565b5b9050919050565b611ba2610a18565b15611be2576040517f08c379a0000000000000000000000000000000000000000000000000000000008152600401611bd9906133cd565b60405180910390fd5b611bed838383611f64565b505050565b505050565b611c0081612078565b6000600a60008381526020019081526020016000208054611c2090613803565b905014611c4757600a60008281526020019081526020016000206000611c469190612942565b5b50565b611c548383612195565b611c616000848484611ca5565b611ca0576040517f08c379a0000000000000000000000000000000000000000000000000000000008152600401611c97906132ed565b60405180910390fd5b505050565b6000611cc68473ffffffffffffffffffffffffffffffffffffffff1661236f565b15611e2f578373ffffffffffffffffffffffffffffffffffffffff1663150b7a02611cef6110ca565b8786866040518563ffffffff1660e01b8152600401611d1194939291906131e6565b602060405180830381600087803b158015611d2b57600080fd5b505af1925050508015611d5c57506040513d601f19601f82011682018060405250810190611d599190612ca8565b60015b611ddf573d8060008114611d8c576040519150601f19603f3d011682016040523d82523d6000602084013e611d91565b606091505b50600081511415611dd7576040517f08c379a0000000000000000000000000000000000000000000000000000000008152600401611dce906132ed565b60405180910390fd5b805181602001fd5b63150b7a0260e01b7bffffffffffffffffffffffffffffffffffffffffffffffffffffffff1916817bffffffffffffffffffffffffffffffffffffffffffffffffffffffff191614915050611e34565b600190505b949350505050565b606060405180602001604052806000815250905090565b6060611e5e8261105e565b611e9d576040517f08c379a0000000000000000000000000000000000000000000000000000000008152600401611e94906134ed565b60405180910390fd5b6000611ea7611e3c565b90506000815111611ec75760405180602001604052806000815250611ef2565b80611ed184612392565b604051602001611ee29291906131a7565b6040516020818303038152906040525b915050919050565b60007f01ffc9a7000000000000000000000000000000000000000000000000000000007bffffffffffffffffffffffffffffffffffffffffffffffffffffffff1916827bffffffffffffffffffffffffffffffffffffffffffffffffffffffff1916149050919050565b611f6f83838361253f565b600073ffffffffffffffffffffffffffffffffffffffff168373ffffffffffffffffffffffffffffffffffffffff161415611fb257611fad81612544565b611ff1565b8173ffffffffffffffffffffffffffffffffffffffff168373ffffffffffffffffffffffffffffffffffffffff1614611ff057611fef838261258d565b5b5b600073ffffffffffffffffffffffffffffffffffffffff168273ffffffffffffffffffffffffffffffffffffffff1614156120345761202f816126fa565b612073565b8273ffffffffffffffffffffffffffffffffffffffff168273ffffffffffffffffffffffffffffffffffffffff161461207257612071828261283d565b5b5b505050565b600061208382610a2f565b905061209181600084611b9a565b61209c6000836110d2565b6001600360008373ffffffffffffffffffffffffffffffffffffffff1673ffffffffffffffffffffffffffffffffffffffff16815260200190815260200160002060008282546120ec9190613719565b925050819055506002600083815260200190815260200160002060006101000a81549073ffffffffffffffffffffffffffffffffffffffff021916905581600073ffffffffffffffffffffffffffffffffffffffff168273ffffffffffffffffffffffffffffffffffffffff167fddf252ad1be2c89b69c2b068fc378daa952ba7f163c4a11628f55a4df523b3ef60405160405180910390a461219181600084611bf2565b5050565b600073ffffffffffffffffffffffffffffffffffffffff168273ffffffffffffffffffffffffffffffffffffffff161415612205576040517f08c379a00000000000000000000000000000000000000000000000000000000081526004016121fc9061346d565b60405180910390fd5b61220e8161105e565b1561224e576040517f08c379a00000000000000000000000000000000000000000000000000000000081526004016122459061334d565b60405180910390fd5b61225a60008383611b9a565b6001600360008473ffffffffffffffffffffffffffffffffffffffff1673ffffffffffffffffffffffffffffffffffffffff16815260200190815260200160002060008282546122aa9190613692565b92505081905550816002600083815260200190815260200160002060006101000a81548173ffffffffffffffffffffffffffffffffffffffff021916908373ffffffffffffffffffffffffffffffffffffffff160217905550808273ffffffffffffffffffffffffffffffffffffffff16600073ffffffffffffffffffffffffffffffffffffffff167fddf252ad1be2c89b69c2b068fc378daa952ba7f163c4a11628f55a4df523b3ef60405160405180910390a461236b60008383611bf2565b5050565b6000808273ffffffffffffffffffffffffffffffffffffffff163b119050919050565b606060008214156123da576040518060400160405280600181526020017f3000000000000000000000000000000000000000000000000000000000000000815250905061253a565b600082905060005b6000821461240c5780806123f590613866565b915050600a8261240591906136e8565b91506123e2565b60008167ffffffffffffffff81111561244e577f4e487b7100000000000000000000000000000000000000000000000000000000600052604160045260246000fd5b6040519080825280601f01601f1916602001820160405280156124805781602001600182028036833780820191505090505b5090505b60008514612533576001826124999190613719565b9150600a856124a891906138af565b60306124b49190613692565b60f81b8183815181106124f0577f4e487b7100000000000000000000000000000000000000000000000000000000600052603260045260246000fd5b60200101907effffffffffffffffffffffffffffffffffffffffffffffffffffffffffffff1916908160001a905350600a8561252c91906136e8565b9450612484565b8093505050505b919050565b505050565b6008805490506009600083815260200190815260200160002081905550600881908060018154018082558091505060019003906000526020600020016000909190919091505550565b6000600161259a84610b4c565b6125a49190613719565b9050600060076000848152602001908152602001600020549050818114612689576000600660008673ffffffffffffffffffffffffffffffffffffffff1673ffffffffffffffffffffffffffffffffffffffff168152602001908152602001600020600084815260200190815260200160002054905080600660008773ffffffffffffffffffffffffffffffffffffffff1673ffffffffffffffffffffffffffffffffffffffff168152602001908152602001600020600084815260200190815260200160002081905550816007600083815260200190815260200160002081905550505b6007600084815260200190815260200160002060009055600660008573ffffffffffffffffffffffffffffffffffffffff1673ffffffffffffffffffffffffffffffffffffffff16815260200190815260200160002060008381526020019081526020016000206000905550505050565b6000600160088054905061270e9190613719565b9050600060096000848152602001908152602001600020549050600060088381548110612764577f4e487b7100000000000000000000000000000000000000000000000000000000600052603260045260246000fd5b9060005260206000200154905080600883815481106127ac577f4e487b7100000000000000000000000000000000000000000000000000000000600052603260045260246000fd5b906000526020600020018190555081600960008381526020019081526020016000208190555060096000858152602001908152602001600020600090556008805480612821577f4e487b7100000000000000000000000000000000000000000000000000000000600052603160045260246000fd5b6001900381819060005260206000200160009055905550505050565b600061284883610b4c565b905081600660008573ffffffffffffffffffffffffffffffffffffffff1673ffffffffffffffffffffffffffffffffffffffff168152602001908152602001600020600083815260200190815260200160002081905550806007600084815260200190815260200160002081905550505050565b8280546128c890613803565b90600052602060002090601f0160209004810192826128ea5760008555612931565b82601f1061290357805160ff1916838001178555612931565b82800160010185558215612931579182015b82811115612930578251825591602001919060010190612915565b5b50905061293e9190612982565b5090565b50805461294e90613803565b6000825580601f10612960575061297f565b601f01602090049060005260206000209081019061297e9190612982565b5b50565b5b8082111561299b576000816000905550600101612983565b5090565b60006129b26129ad846135ed565b6135c8565b9050828152602081018484840111156129ca57600080fd5b6129d58482856137c1565b509392505050565b60006129f06129eb8461361e565b6135c8565b905082815260208101848484011115612a0857600080fd5b612a138482856137c1565b509392505050565b600081359050612a2a8161400b565b92915050565b600081359050612a3f81614022565b92915050565b600081359050612a5481614039565b92915050565b600081519050612a6981614039565b92915050565b600082601f830112612a8057600080fd5b8135612a9084826020860161299f565b91505092915050565b600082601f830112612aaa57600080fd5b8135612aba8482602086016129dd565b91505092915050565b600081359050612ad281614050565b92915050565b600060208284031215612aea57600080fd5b6000612af884828501612a1b565b91505092915050565b60008060408385031215612b1457600080fd5b6000612b2285828601612a1b565b9250506020612b3385828601612a1b565b9150509250929050565b600080600060608486031215612b5257600080fd5b6000612b6086828701612a1b565b9350506020612b7186828701612a1b565b9250506040612b8286828701612ac3565b9150509250925092565b60008060008060808587031215612ba257600080fd5b6000612bb087828801612a1b565b9450506020612bc187828801612a1b565b9350506040612bd287828801612ac3565b925050606085013567ffffffffffffffff811115612bef57600080fd5b612bfb87828801612a6f565b91505092959194509250565b60008060408385031215612c1a57600080fd5b6000612c2885828601612a1b565b9250506020612c3985828601612a30565b9150509250929050565b60008060408385031215612c5657600080fd5b6000612c6485828601612a1b565b9250506020612c7585828601612ac3565b9150509250929050565b600060208284031215612c9157600080fd5b6000612c9f84828501612a45565b91505092915050565b600060208284031215612cba57600080fd5b6000612cc884828501612a5a565b91505092915050565b600060208284031215612ce357600080fd5b600082013567ffffffffffffffff811115612cfd57600080fd5b612d0984828501612a99565b91505092915050565b600060208284031215612d2457600080fd5b6000612d3284828501612ac3565b91505092915050565b60008060408385031215612d4e57600080fd5b6000612d5c85828601612ac3565b925050602083013567ffffffffffffffff811115612d7957600080fd5b612d8585828601612a99565b9150509250929050565b612d988161374d565b82525050565b612da78161375f565b82525050565b6000612db88261364f565b612dc28185613665565b9350612dd28185602086016137d0565b612ddb8161399c565b840191505092915050565b6000612df18261365a565b612dfb8185613676565b9350612e0b8185602086016137d0565b612e148161399c565b840191505092915050565b6000612e2a8261365a565b612e348185613687565b9350612e448185602086016137d0565b80840191505092915050565b6000612e5d601483613676565b9150612e68826139ad565b602082019050919050565b6000612e80602b83613676565b9150612e8b826139d6565b604082019050919050565b6000612ea3603283613676565b9150612eae82613a25565b604082019050919050565b6000612ec6602683613676565b9150612ed182613a74565b604082019050919050565b6000612ee9602583613676565b9150612ef482613ac3565b604082019050919050565b6000612f0c601c83613676565b9150612f1782613b12565b602082019050919050565b6000612f2f602483613676565b9150612f3a82613b3b565b604082019050919050565b6000612f52601983613676565b9150612f5d82613b8a565b602082019050919050565b6000612f75602c83613676565b9150612f8082613bb3565b604082019050919050565b6000612f98601083613676565b9150612fa382613c02565b602082019050919050565b6000612fbb603883613676565b9150612fc682613c2b565b604082019050919050565b6000612fde602a83613676565b9150612fe982613c7a565b604082019050919050565b6000613001602983613676565b915061300c82613cc9565b604082019050919050565b6000613024602e83613676565b915061302f82613d18565b604082019050919050565b6000613047602083613676565b915061305282613d67565b602082019050919050565b600061306a603183613676565b915061307582613d90565b604082019050919050565b600061308d602c83613676565b915061309882613ddf565b604082019050919050565b60006130b0602083613676565b91506130bb82613e2e565b602082019050919050565b60006130d3602f83613676565b91506130de82613e57565b604082019050919050565b60006130f6602183613676565b915061310182613ea6565b604082019050919050565b6000613119601683613676565b915061312482613ef5565b602082019050919050565b600061313c603183613676565b915061314782613f1e565b604082019050919050565b600061315f602c83613676565b915061316a82613f6d565b604082019050919050565b6000613182603083613676565b915061318d82613fbc565b604082019050919050565b6131a1816137b7565b82525050565b60006131b38285612e1f565b91506131bf8284612e1f565b91508190509392505050565b60006020820190506131e06000830184612d8f565b92915050565b60006080820190506131fb6000830187612d8f565b6132086020830186612d8f565b6132156040830185613198565b81810360608301526132278184612dad565b905095945050505050565b60006060820190506132476000830186612d8f565b6132546020830185613198565b81810360408301526132668184612de6565b9050949350505050565b60006020820190506132856000830184612d9e565b92915050565b600060208201905081810360008301526132a58184612de6565b905092915050565b600060208201905081810360008301526132c681612e50565b9050919050565b600060208201905081810360008301526132e681612e73565b9050919050565b6000602082019050818103600083015261330681612e96565b9050919050565b6000602082019050818103600083015261332681612eb9565b9050919050565b6000602082019050818103600083015261334681612edc565b9050919050565b6000602082019050818103600083015261336681612eff565b9050919050565b6000602082019050818103600083015261338681612f22565b9050919050565b600060208201905081810360008301526133a681612f45565b9050919050565b600060208201905081810360008301526133c681612f68565b9050919050565b600060208201905081810360008301526133e681612f8b565b9050919050565b6000602082019050818103600083015261340681612fae565b9050919050565b6000602082019050818103600083015261342681612fd1565b9050919050565b6000602082019050818103600083015261344681612ff4565b9050919050565b6000602082019050818103600083015261346681613017565b9050919050565b600060208201905081810360008301526134868161303a565b9050919050565b600060208201905081810360008301526134a68161305d565b9050919050565b600060208201905081810360008301526134c681613080565b9050919050565b600060208201905081810360008301526134e6816130a3565b9050919050565b60006020820190508181036000830152613506816130c6565b9050919050565b60006020820190508181036000830152613526816130e9565b9050919050565b600060208201905081810360008301526135468161310c565b9050919050565b600060208201905081810360008301526135668161312f565b9050919050565b6000602082019050818103600083015261358681613152565b9050919050565b600060208201905081810360008301526135a681613175565b9050919050565b60006020820190506135c26000830184613198565b92915050565b60006135d26135e3565b90506135de8282613835565b919050565b6000604051905090565b600067ffffffffffffffff8211156136085761360761396d565b5b6136118261399c565b9050602081019050919050565b600067ffffffffffffffff8211156136395761363861396d565b5b6136428261399c565b9050602081019050919050565b600081519050919050565b600081519050919050565b600082825260208201905092915050565b600082825260208201905092915050565b600081905092915050565b600061369d826137b7565b91506136a8836137b7565b9250827fffffffffffffffffffffffffffffffffffffffffffffffffffffffffffffffff038211156136dd576136dc6138e0565b5b828201905092915050565b60006136f3826137b7565b91506136fe836137b7565b92508261370e5761370d61390f565b5b828204905092915050565b6000613724826137b7565b915061372f836137b7565b925082821015613742576137416138e0565b5b828203905092915050565b600061375882613797565b9050919050565b60008115159050919050565b60007fffffffff0000000000000000000000000000000000000000000000000000000082169050919050565b600073ffffffffffffffffffffffffffffffffffffffff82169050919050565b6000819050919050565b82818337600083830152505050565b60005b838110156137ee5780820151818401526020810190506137d3565b838111156137fd576000848401525b50505050565b6000600282049050600182168061381b57607f821691505b6020821081141561382f5761382e61393e565b5b50919050565b61383e8261399c565b810181811067ffffffffffffffff8211171561385d5761385c61396d565b5b80604052505050565b6000613871826137b7565b91507fffffffffffffffffffffffffffffffffffffffffffffffffffffffffffffffff8214156138a4576138a36138e0565b5b600182019050919050565b60006138ba826137b7565b91506138c5836137b7565b9250826138d5576138d461390f565b5b828206905092915050565b7f4e487b7100000000000000000000000000000000000000000000000000000000600052601160045260246000fd5b7f4e487b7100000000000000000000000000000000000000000000000000000000600052601260045260246000fd5b7f4e487b7100000000000000000000000000000000000000000000000000000000600052602260045260246000fd5b7f4e487b7100000000000000000000000000000000000000000000000000000000600052604160045260246000fd5b6000601f19601f8301169050919050565b7f5061757361626c653a206e6f7420706175736564000000000000000000000000600082015250565b7f455243373231456e756d657261626c653a206f776e657220696e646578206f7560008201527f74206f6620626f756e6473000000000000000000000000000000000000000000602082015250565b7f4552433732313a207472616e7366657220746f206e6f6e20455243373231526560008201527f63656976657220696d706c656d656e7465720000000000000000000000000000602082015250565b7f4f776e61626c653a206e6577206f776e657220697320746865207a65726f206160008201527f6464726573730000000000000000000000000000000000000000000000000000602082015250565b7f4552433732313a207472616e736665722066726f6d20696e636f72726563742060008201527f6f776e6572000000000000000000000000000000000000000000000000000000602082015250565b7f4552433732313a20746f6b656e20616c7265616479206d696e74656400000000600082015250565b7f4552433732313a207472616e7366657220746f20746865207a65726f2061646460008201527f7265737300000000000000000000000000000000000000000000000000000000602082015250565b7f4552433732313a20617070726f766520746f2063616c6c657200000000000000600082015250565b7f4552433732313a206f70657261746f7220717565727920666f72206e6f6e657860008201527f697374656e7420746f6b656e0000000000000000000000000000000000000000602082015250565b7f5061757361626c653a2070617573656400000000000000000000000000000000600082015250565b7f4552433732313a20617070726f76652063616c6c6572206973206e6f74206f7760008201527f6e6572206e6f7220617070726f76656420666f7220616c6c0000000000000000602082015250565b7f4552433732313a2062616c616e636520717565727920666f7220746865207a6560008201527f726f206164647265737300000000000000000000000000000000000000000000602082015250565b7f4552433732313a206f776e657220717565727920666f72206e6f6e657869737460008201527f656e7420746f6b656e0000000000000000000000000000000000000000000000602082015250565b7f45524337323155524953746f726167653a2055524920736574206f66206e6f6e60008201527f6578697374656e7420746f6b656e000000000000000000000000000000000000602082015250565b7f4552433732313a206d696e7420746f20746865207a65726f2061646472657373600082015250565b7f45524337323155524953746f726167653a2055524920717565727920666f722060008201527f6e6f6e6578697374656e7420746f6b656e000000000000000000000000000000602082015250565b7f4552433732313a20617070726f76656420717565727920666f72206e6f6e657860008201527f697374656e7420746f6b656e0000000000000000000000000000000000000000602082015250565b7f4f776e61626c653a2063616c6c6572206973206e6f7420746865206f776e6572600082015250565b7f4552433732314d657461646174613a2055524920717565727920666f72206e6f60008201527f6e6578697374656e7420746f6b656e0000000000000000000000000000000000602082015250565b7f4552433732313a20617070726f76616c20746f2063757272656e74206f776e6560008201527f7200000000000000000000000000000000000000000000000000000000000000602082015250565b7f4f6e6c79206f776e65722063616e207365742055524900000000000000000000600082015250565b7f4552433732313a207472616e736665722063616c6c6572206973206e6f74206f60008201527f776e6572206e6f7220617070726f766564000000000000000000000000000000602082015250565b7f455243373231456e756d657261626c653a20676c6f62616c20696e646578206f60008201527f7574206f6620626f756e64730000000000000000000000000000000000000000602082015250565b7f4552433732314275726e61626c653a2063616c6c6572206973206e6f74206f7760008201527f6e6572206e6f7220617070726f76656400000000000000000000000000000000602082015250565b6140148161374d565b811461401f57600080fd5b50565b61402b8161375f565b811461403657600080fd5b50565b6140428161376b565b811461404d57600080fd5b50565b614059816137b7565b811461406457600080fd5b5056fea26469706673582212203da54284e01eab51e7afad5a40f57167bb5e11990403af151f0dadfe11aa763064736f6c63430008040033",
  "linkReferences": {},
  "deployedLinkReferences": {}
}