{
  "_format": "hh-sol-artifact-1",
  "contractName": "TokenPaymentSplitter",
  "sourceName": "contracts/TokenPaymentSplitter.sol",
  "abi": [
    {
      "inputs": [
        {
          "internalType": "address",
          "name": "_paymentToken",
          "type": "address"
        }
      ],
      "stateMutability": "nonpayable",
      "type": "constructor"
    },
    {
      "anonymous": false,
      "inputs": [
        {
          "indexed": true,
          "internalType": "address",
          "name": "previousOwner",
          "type": "address"
        },
        {
          "indexed": true,
          "internalType": "address",
          "name": "newOwner",
          "type": "address"
        }
      ],
      "name": "OwnershipTransferred",
      "type": "event"
    },
    {
      "inputs": [
        {
          "internalType": "uint256",
          "name": "tokenId",
          "type": "uint256"
        }
      ],
      "name": "getOwner",
      "outputs": [
        {
          "internalType": "address",
          "name": "",
          "type": "address"
        }
      ],
      "stateMutability": "view",
      "type": "function"
    },
    {
      "inputs": [
        {
          "internalType": "uint256",
          "name": "tokenId",
          "type": "uint256"
        }
      ],
      "name": "getReaders",
      "outputs": [
        {
          "internalType": "address[]",
          "name": "",
          "type": "address[]"
        }
      ],
      "stateMutability": "view",
      "type": "function"
    },
    {
      "inputs": [
        {
          "internalType": "uint8",
          "name": "level",
          "type": "uint8"
        },
        {
          "internalType": "uint256",
          "name": "tokenId",
          "type": "uint256"
        }
      ],
      "name": "getShare",
      "outputs": [
        {
          "internalType": "address[]",
          "name": "",
          "type": "address[]"
        }
      ],
      "stateMutability": "view",
      "type": "function"
    },
    {
      "inputs": [
        {
          "internalType": "uint8",
          "name": "level",
          "type": "uint8"
        },
        {
          "internalType": "uint256",
          "name": "tokenId",
          "type": "uint256"
        }
      ],
      "name": "invest",
      "outputs": [],
      "stateMutability": "nonpayable",
      "type": "function"
    },
    {
      "inputs": [],
      "name": "owner",
      "outputs": [
        {
          "internalType": "address",
          "name": "",
          "type": "address"
        }
      ],
      "stateMutability": "view",
      "type": "function"
    },
    {
      "inputs": [
        {
          "internalType": "uint256",
          "name": "tokenId",
          "type": "uint256"
        }
      ],
      "name": "read",
      "outputs": [],
      "stateMutability": "nonpayable",
      "type": "function"
    },
    {
      "inputs": [],
      "name": "renounceOwnership",
      "outputs": [],
      "stateMutability": "nonpayable",
      "type": "function"
    },
    {
      "inputs": [
        {
          "internalType": "uint256",
          "name": "one",
          "type": "uint256"
        },
        {
          "internalType": "uint256",
          "name": "twe",
          "type": "uint256"
        },
        {
          "internalType": "uint256",
          "name": "three",
          "type": "uint256"
        }
      ],
      "name": "setDividends",
      "outputs": [],
      "stateMutability": "nonpayable",
      "type": "function"
    },
    {
      "inputs": [
        {
          "internalType": "uint256",
          "name": "one",
          "type": "uint256"
        },
        {
          "internalType": "uint256",
          "name": "twe",
          "type": "uint256"
        },
        {
          "internalType": "uint256",
          "name": "three",
          "type": "uint256"
        }
      ],
      "name": "setInvests",
      "outputs": [],
      "stateMutability": "nonpayable",
      "type": "function"
    },
    {
      "inputs": [
        {
          "internalType": "uint256",
          "name": "tokenId",
          "type": "uint256"
        },
        {
          "internalType": "address",
          "name": "owner",
          "type": "address"
        }
      ],
      "name": "setOwner",
      "outputs": [],
      "stateMutability": "nonpayable",
      "type": "function"
    },
    {
      "inputs": [
        {
          "internalType": "uint256",
          "name": "one",
          "type": "uint256"
        },
        {
          "internalType": "uint256",
          "name": "twe",
          "type": "uint256"
        },
        {
          "internalType": "uint256",
          "name": "three",
          "type": "uint256"
        }
      ],
      "name": "setPositions",
      "outputs": [],
      "stateMutability": "nonpayable",
      "type": "function"
    },
    {
      "inputs": [
        {
          "internalType": "uint256",
          "name": "v",
          "type": "uint256"
        }
      ],
      "name": "setPublish",
      "outputs": [],
      "stateMutability": "nonpayable",
      "type": "function"
    },
    {
      "inputs": [
        {
          "internalType": "uint8",
          "name": "level",
          "type": "uint8"
        },
        {
          "internalType": "uint256",
          "name": "tokenId",
          "type": "uint256"
        },
        {
          "internalType": "address",
          "name": "to",
          "type": "address"
        }
      ],
      "name": "transfer",
      "outputs": [],
      "stateMutability": "nonpayable",
      "type": "function"
    },
    {
      "inputs": [
        {
          "internalType": "uint256",
          "name": "tokenId",
          "type": "uint256"
        },
        {
          "internalType": "address",
          "name": "to",
          "type": "address"
        }
      ],
      "name": "transferOwner",
      "outputs": [],
      "stateMutability": "nonpayable",
      "type": "function"
    },
    {
      "inputs": [
        {
          "internalType": "uint256",
          "name": "tokenId",
          "type": "uint256"
        },
        {
          "internalType": "address",
          "name": "owner",
          "type": "address"
        },
        {
          "internalType": "address",
          "name": "to",
          "type": "address"
        }
      ],
      "name": "transferOwnerFrom",
      "outputs": [],
      "stateMutability": "nonpayable",
      "type": "function"
    },
    {
      "inputs": [
        {
          "internalType": "address",
          "name": "newOwner",
          "type": "address"
        }
      ],
      "name": "transferOwnership",
      "outputs": [],
      "stateMutability": "nonpayable",
      "type": "function"
    },
    {
      "inputs": [
        {
          "internalType": "address",
          "name": "_transferTo",
          "type": "address"
        },
        {
          "internalType": "address",
          "name": "_token",
          "type": "address"
        }
      ],
      "name": "withdraw",
      "outputs": [],
      "stateMutability": "nonpayable",
      "type": "function"
    }
  ],
  "bytecode": "0x60806040526064600855655af3107a40006009553480156200002057600080fd5b5060405162003ffd38038062003ffd8339818101604052810190620000469190620002b4565b620000666200005a620001d160201b60201c565b620001d960201b60201c565b80600160006101000a81548173ffffffffffffffffffffffffffffffffffffffff021916908373ffffffffffffffffffffffffffffffffffffffff1602179055506102e4600460008060ff16815260200190815260200160002081905550604260046000600160ff16815260200190815260200160002081905550600660046000600260ff16815260200190815260200160002081905550612710600560008060ff168152602001908152602001600020819055506103e860056000600160ff16815260200190815260200160002081905550606460056000600260ff16815260200190815260200160002081905550600a60056000600360ff168152602001908152602001600020819055506005600660008060ff16815260200190815260200160002081905550603260066000600160ff168152602001908152602001600020819055506101f460066000600260ff16815260200190815260200160002081905550506200032e565b600033905090565b60008060009054906101000a900473ffffffffffffffffffffffffffffffffffffffff169050816000806101000a81548173ffffffffffffffffffffffffffffffffffffffff021916908373ffffffffffffffffffffffffffffffffffffffff1602179055508173ffffffffffffffffffffffffffffffffffffffff168173ffffffffffffffffffffffffffffffffffffffff167f8be0079c531659141344cd1fd0a4f28419497f9722a3daafe3b4186f6b6457e060405160405180910390a35050565b600081519050620002ae8162000314565b92915050565b600060208284031215620002c757600080fd5b6000620002d7848285016200029d565b91505092915050565b6000620002ed82620002f4565b9050919050565b600073ffffffffffffffffffffffffffffffffffffffff82169050919050565b6200031f81620002e0565b81146200032b57600080fd5b50565b613cbf806200033e6000396000f3fe608060405234801561001057600080fd5b506004361061010b5760003560e01c8063a62e64a3116100a2578063e34ae0a311610071578063e34ae0a314610278578063ed2e5a97146102a8578063eec2d2f3146102c4578063f2fde38b146102e0578063f940e385146102fc5761010b565b8063a62e64a3146101f4578063c180724414610210578063c41a360a1461022c578063e17273341461025c5761010b565b80637ac39bfb116100de5780637ac39bfb1461016e5780637fd392471461018a5780638da5cb5b146101a6578063a2f476bb146101c45761010b565b80631ebe85ba14610110578063310d201c1461012c578063504163aa14610148578063715018a614610164575b600080fd5b61012a60048036038101906101259190612ca5565b610318565b005b61014660048036038101906101419190612c53565b61047f565b005b610162600480360381019061015d9190612d30565b610505565b005b61016c6105d9565b005b61018860048036038101906101839190612d30565b610661565b005b6101a4600480360381019061019f9190612ca5565b610735565b005b6101ae610ad3565b6040516101bb919061321a565b60405180910390f35b6101de60048036038101906101d99190612d7f565b610afc565b6040516101eb91906132be565b60405180910390f35b61020e60048036038101906102099190612d7f565b610bfb565b005b61022a60048036038101906102259190612ce1565b61117f565b005b61024660048036038101906102419190612c53565b6113d3565b604051610253919061321a565b60405180910390f35b61027660048036038101906102719190612d30565b611410565b005b610292600480360381019061028d9190612c53565b6114e4565b60405161029f91906132be565b60405180910390f35b6102c260048036038101906102bd9190612c53565b611585565b005b6102de60048036038101906102d99190612dbb565b611a48565b005b6102fa60048036038101906102f59190612bc5565b611e38565b005b61031660048036038101906103119190612bee565b611f30565b005b600073ffffffffffffffffffffffffffffffffffffffff168173ffffffffffffffffffffffffffffffffffffffff161415610388576040517f08c379a000000000000000000000000000000000000000000000000000000000815260040161037f90613402565b60405180910390fd5b3373ffffffffffffffffffffffffffffffffffffffff166002600084815260200190815260200160002060009054906101000a900473ffffffffffffffffffffffffffffffffffffffff1673ffffffffffffffffffffffffffffffffffffffff1614610429576040517f08c379a000000000000000000000000000000000000000000000000000000000815260040161042090613342565b60405180910390fd5b806002600084815260200190815260200160002060006101000a81548173ffffffffffffffffffffffffffffffffffffffff021916908373ffffffffffffffffffffffffffffffffffffffff1602179055505050565b6104876120ac565b73ffffffffffffffffffffffffffffffffffffffff166104a5610ad3565b73ffffffffffffffffffffffffffffffffffffffff16146104fb576040517f08c379a00000000000000000000000000000000000000000000000000000000081526004016104f2906133e2565b60405180910390fd5b8060088190555050565b61050d6120ac565b73ffffffffffffffffffffffffffffffffffffffff1661052b610ad3565b73ffffffffffffffffffffffffffffffffffffffff1614610581576040517f08c379a0000000000000000000000000000000000000000000000000000000008152600401610578906133e2565b60405180910390fd5b82600560008060ff168152602001908152602001600020819055508160056000600160ff168152602001908152602001600020819055508060056000600260ff16815260200190815260200160002081905550505050565b6105e16120ac565b73ffffffffffffffffffffffffffffffffffffffff166105ff610ad3565b73ffffffffffffffffffffffffffffffffffffffff1614610655576040517f08c379a000000000000000000000000000000000000000000000000000000000815260040161064c906133e2565b60405180910390fd5b61065f60006120b4565b565b6106696120ac565b73ffffffffffffffffffffffffffffffffffffffff16610687610ad3565b73ffffffffffffffffffffffffffffffffffffffff16146106dd576040517f08c379a00000000000000000000000000000000000000000000000000000000081526004016106d4906133e2565b60405180910390fd5b82600460008060ff168152602001908152602001600020819055508160046000600160ff168152602001908152602001600020819055508060046000600260ff16815260200190815260200160002081905550505050565b61073d6120ac565b73ffffffffffffffffffffffffffffffffffffffff1661075b610ad3565b73ffffffffffffffffffffffffffffffffffffffff16146107b1576040517f08c379a00000000000000000000000000000000000000000000000000000000081526004016107a8906133e2565b60405180910390fd5b600073ffffffffffffffffffffffffffffffffffffffff168173ffffffffffffffffffffffffffffffffffffffff161415610821576040517f08c379a0000000000000000000000000000000000000000000000000000000008152600401610818906133a2565b60405180910390fd5b600073ffffffffffffffffffffffffffffffffffffffff166002600084815260200190815260200160002060009054906101000a900473ffffffffffffffffffffffffffffffffffffffff1673ffffffffffffffffffffffffffffffffffffffff16146108c3576040517f08c379a00000000000000000000000000000000000000000000000000000000081526004016108ba90613502565b60405180910390fd5b60006108d3600954600854612178565b90506000600160009054906101000a900473ffffffffffffffffffffffffffffffffffffffff1673ffffffffffffffffffffffffffffffffffffffff1663dd62ed3e84306040518363ffffffff1660e01b8152600401610934929190613235565b60206040518083038186803b15801561094c57600080fd5b505afa158015610960573d6000803e3d6000fd5b505050506040513d601f19601f820116820180604052508101906109849190612c7c565b9050818110156109c9576040517f08c379a00000000000000000000000000000000000000000000000000000000081526004016109c0906133c2565b60405180910390fd5b600160009054906101000a900473ffffffffffffffffffffffffffffffffffffffff1673ffffffffffffffffffffffffffffffffffffffff166323b872dd8430856040518463ffffffff1660e01b8152600401610a289392919061325e565b602060405180830381600087803b158015610a4257600080fd5b505af1158015610a56573d6000803e3d6000fd5b505050506040513d601f19601f82011682018060405250810190610a7a9190612c2a565b50826002600086815260200190815260200160002060006101000a81548173ffffffffffffffffffffffffffffffffffffffff021916908373ffffffffffffffffffffffffffffffffffffffff16021790555050505050565b60008060009054906101000a900473ffffffffffffffffffffffffffffffffffffffff16905090565b606060038360ff1610610b44576040517f08c379a0000000000000000000000000000000000000000000000000000000008152600401610b3b906134e2565b60405180910390fd5b600360008460ff1660ff1681526020019081526020016000206000838152602001908152602001600020805480602002602001604051908101604052809291908181526020018280548015610bee57602002820191906000526020600020905b8160009054906101000a900473ffffffffffffffffffffffffffffffffffffffff1673ffffffffffffffffffffffffffffffffffffffff1681526020019060010190808311610ba4575b5050505050905092915050565b60038260ff1610610c41576040517f08c379a0000000000000000000000000000000000000000000000000000000008152600401610c38906134e2565b60405180910390fd5b600073ffffffffffffffffffffffffffffffffffffffff166002600083815260200190815260200160002060009054906101000a900473ffffffffffffffffffffffffffffffffffffffff1673ffffffffffffffffffffffffffffffffffffffff161415610ce4576040517f08c379a0000000000000000000000000000000000000000000000000000000008152600401610cdb90613462565b60405180910390fd5b6000610d0b600954600560008660ff1660ff16815260200190815260200160002054612178565b90506000600160009054906101000a900473ffffffffffffffffffffffffffffffffffffffff1673ffffffffffffffffffffffffffffffffffffffff1663dd62ed3e33306040518363ffffffff1660e01b8152600401610d6c929190613235565b60206040518083038186803b158015610d8457600080fd5b505afa158015610d98573d6000803e3d6000fd5b505050506040513d601f19601f82011682018060405250810190610dbc9190612c7c565b905081811015610e01576040517f08c379a0000000000000000000000000000000000000000000000000000000008152600401610df8906133c2565b60405180910390fd5b6000600360008660ff1660ff1681526020019081526020016000206000858152602001908152602001600020805480602002602001604051908101604052809291908181526020018280548015610ead57602002820191906000526020600020905b8160009054906101000a900473ffffffffffffffffffffffffffffffffffffffff1673ffffffffffffffffffffffffffffffffffffffff1681526020019060010190808311610e63575b50505050509050600660008660ff1660ff16815260200190815260200160002054815110610ef3600660008860ff1660ff1681526020019081526020016000205461218e565b604051602001610f0391906131f8565b60405160208183030381529060405290610f53576040517f08c379a0000000000000000000000000000000000000000000000000000000008152600401610f4a91906132e0565b60405180910390fd5b50610f5f85853361233b565b6000610f6d600087876125be565b81610f7891906135b8565b9050610f86600187876125be565b81610f9191906135b8565b9050610f9f600287876125be565b81610faa91906135b8565b90506000610fc48286610fbd9190613699565b600a612843565b90508082610fd291906135b8565b9150600160009054906101000a900473ffffffffffffffffffffffffffffffffffffffff1673ffffffffffffffffffffffffffffffffffffffff166323b872dd3330846040518463ffffffff1660e01b81526004016110339392919061325e565b602060405180830381600087803b15801561104d57600080fd5b505af1158015611061573d6000803e3d6000fd5b505050506040513d601f19601f820116820180604052508101906110859190612c2a565b50600160009054906101000a900473ffffffffffffffffffffffffffffffffffffffff1673ffffffffffffffffffffffffffffffffffffffff166323b872dd33600260008a815260200190815260200160002060009054906101000a900473ffffffffffffffffffffffffffffffffffffffff1685896111059190613699565b6040518463ffffffff1660e01b81526004016111239392919061325e565b602060405180830381600087803b15801561113d57600080fd5b505af1158015611151573d6000803e3d6000fd5b505050506040513d601f19601f820116820180604052508101906111759190612c2a565b5050505050505050565b6111876120ac565b73ffffffffffffffffffffffffffffffffffffffff166111a5610ad3565b73ffffffffffffffffffffffffffffffffffffffff16146111fb576040517f08c379a00000000000000000000000000000000000000000000000000000000081526004016111f2906133e2565b60405180910390fd5b600073ffffffffffffffffffffffffffffffffffffffff168273ffffffffffffffffffffffffffffffffffffffff16141561126b576040517f08c379a0000000000000000000000000000000000000000000000000000000008152600401611262906133a2565b60405180910390fd5b600073ffffffffffffffffffffffffffffffffffffffff168173ffffffffffffffffffffffffffffffffffffffff1614156112db576040517f08c379a00000000000000000000000000000000000000000000000000000000081526004016112d290613402565b60405180910390fd5b8173ffffffffffffffffffffffffffffffffffffffff166002600085815260200190815260200160002060009054906101000a900473ffffffffffffffffffffffffffffffffffffffff1673ffffffffffffffffffffffffffffffffffffffff161461137c576040517f08c379a000000000000000000000000000000000000000000000000000000000815260040161137390613442565b60405180910390fd5b806002600085815260200190815260200160002060006101000a81548173ffffffffffffffffffffffffffffffffffffffff021916908373ffffffffffffffffffffffffffffffffffffffff160217905550505050565b60006002600083815260200190815260200160002060009054906101000a900473ffffffffffffffffffffffffffffffffffffffff169050919050565b6114186120ac565b73ffffffffffffffffffffffffffffffffffffffff16611436610ad3565b73ffffffffffffffffffffffffffffffffffffffff161461148c576040517f08c379a0000000000000000000000000000000000000000000000000000000008152600401611483906133e2565b60405180910390fd5b82600660008060ff168152602001908152602001600020819055508160066000600160ff168152602001908152602001600020819055508060066000600260ff16815260200190815260200160002081905550505050565b60606007600083815260200190815260200160002080548060200260200160405190810160405280929190818152602001828054801561157957602002820191906000526020600020905b8160009054906101000a900473ffffffffffffffffffffffffffffffffffffffff1673ffffffffffffffffffffffffffffffffffffffff168152602001906001019080831161152f575b50505050509050919050565b600073ffffffffffffffffffffffffffffffffffffffff163373ffffffffffffffffffffffffffffffffffffffff1614156115f5576040517f08c379a00000000000000000000000000000000000000000000000000000000081526004016115ec90613422565b60405180910390fd5b600073ffffffffffffffffffffffffffffffffffffffff166002600083815260200190815260200160002060009054906101000a900473ffffffffffffffffffffffffffffffffffffffff1673ffffffffffffffffffffffffffffffffffffffff161415611698576040517f08c379a000000000000000000000000000000000000000000000000000000000815260040161168f90613462565b60405180910390fd5b60006116bd60095460056000600360ff16815260200190815260200160002054612178565b90506000600160009054906101000a900473ffffffffffffffffffffffffffffffffffffffff1673ffffffffffffffffffffffffffffffffffffffff1663dd62ed3e33306040518363ffffffff1660e01b815260040161171e929190613235565b60206040518083038186803b15801561173657600080fd5b505afa15801561174a573d6000803e3d6000fd5b505050506040513d601f19601f8201168201806040525081019061176e9190612c7c565b9050818110156117b3576040517f08c379a00000000000000000000000000000000000000000000000000000000081526004016117aa906133c2565b60405180910390fd5b60006117c260006003866125be565b816117cd91906135b8565b90506117dc60016003866125be565b816117e791906135b8565b90506117f660026003866125be565b8161180191906135b8565b9050600061181b82856118149190613699565b600a612843565b9050808261182991906135b8565b9150600160009054906101000a900473ffffffffffffffffffffffffffffffffffffffff1673ffffffffffffffffffffffffffffffffffffffff166323b872dd3330846040518463ffffffff1660e01b815260040161188a9392919061325e565b602060405180830381600087803b1580156118a457600080fd5b505af11580156118b8573d6000803e3d6000fd5b505050506040513d601f19601f820116820180604052508101906118dc9190612c2a565b50600160009054906101000a900473ffffffffffffffffffffffffffffffffffffffff1673ffffffffffffffffffffffffffffffffffffffff166323b872dd336002600089815260200190815260200160002060009054906101000a900473ffffffffffffffffffffffffffffffffffffffff16858861195c9190613699565b6040518463ffffffff1660e01b815260040161197a9392919061325e565b602060405180830381600087803b15801561199457600080fd5b505af11580156119a8573d6000803e3d6000fd5b505050506040513d601f19601f820116820180604052508101906119cc9190612c2a565b5060076000868152602001908152602001600020339080600181540180825580915050600190039060005260206000200160009091909190916101000a81548173ffffffffffffffffffffffffffffffffffffffff021916908373ffffffffffffffffffffffffffffffffffffffff1602179055505050505050565b60038360ff1610611a8e576040517f08c379a0000000000000000000000000000000000000000000000000000000008152600401611a85906134e2565b60405180910390fd5b600073ffffffffffffffffffffffffffffffffffffffff166002600084815260200190815260200160002060009054906101000a900473ffffffffffffffffffffffffffffffffffffffff1673ffffffffffffffffffffffffffffffffffffffff161415611b31576040517f08c379a0000000000000000000000000000000000000000000000000000000008152600401611b2890613462565b60405180910390fd5b6000600360008560ff1660ff1681526020019081526020016000206000848152602001908152602001600020905060006103e7905060005b8280549050811015611c27573373ffffffffffffffffffffffffffffffffffffffff16838281548110611bc5577f4e487b7100000000000000000000000000000000000000000000000000000000600052603260045260246000fd5b9060005260206000200160009054906101000a900473ffffffffffffffffffffffffffffffffffffffff1673ffffffffffffffffffffffffffffffffffffffff161415611c1457809150611c27565b8080611c1f90613755565b915050611b69565b5081805490508110611c6e576040517f08c379a0000000000000000000000000000000000000000000000000000000008152600401611c6590613382565b60405180910390fd5b8160018380549050611c809190613699565b81548110611cb7577f4e487b7100000000000000000000000000000000000000000000000000000000600052603260045260246000fd5b9060005260206000200160009054906101000a900473ffffffffffffffffffffffffffffffffffffffff16828281548110611d1b577f4e487b7100000000000000000000000000000000000000000000000000000000600052603260045260246000fd5b9060005260206000200160006101000a81548173ffffffffffffffffffffffffffffffffffffffff021916908373ffffffffffffffffffffffffffffffffffffffff16021790555081805480611d9a577f4e487b7100000000000000000000000000000000000000000000000000000000600052603160045260246000fd5b6001900381819060005260206000200160006101000a81549073ffffffffffffffffffffffffffffffffffffffff0219169055905581839080600181540180825580915050600190039060005260206000200160009091909190916101000a81548173ffffffffffffffffffffffffffffffffffffffff021916908373ffffffffffffffffffffffffffffffffffffffff1602179055505050505050565b611e406120ac565b73ffffffffffffffffffffffffffffffffffffffff16611e5e610ad3565b73ffffffffffffffffffffffffffffffffffffffff1614611eb4576040517f08c379a0000000000000000000000000000000000000000000000000000000008152600401611eab906133e2565b60405180910390fd5b600073ffffffffffffffffffffffffffffffffffffffff168173ffffffffffffffffffffffffffffffffffffffff161415611f24576040517f08c379a0000000000000000000000000000000000000000000000000000000008152600401611f1b90613322565b60405180910390fd5b611f2d816120b4565b50565b611f386120ac565b73ffffffffffffffffffffffffffffffffffffffff16611f56610ad3565b73ffffffffffffffffffffffffffffffffffffffff1614611fac576040517f08c379a0000000000000000000000000000000000000000000000000000000008152600401611fa3906133e2565b60405180910390fd5b60008173ffffffffffffffffffffffffffffffffffffffff166370a08231306040518263ffffffff1660e01b8152600401611fe7919061321a565b60206040518083038186803b158015611fff57600080fd5b505afa158015612013573d6000803e3d6000fd5b505050506040513d601f19601f820116820180604052508101906120379190612c7c565b90506000811161207c576040517f08c379a000000000000000000000000000000000000000000000000000000000815260040161207390613302565b60405180910390fd5b6120a783828473ffffffffffffffffffffffffffffffffffffffff166128599092919063ffffffff16565b505050565b600033905090565b60008060009054906101000a900473ffffffffffffffffffffffffffffffffffffffff169050816000806101000a81548173ffffffffffffffffffffffffffffffffffffffff021916908373ffffffffffffffffffffffffffffffffffffffff1602179055508173ffffffffffffffffffffffffffffffffffffffff168173ffffffffffffffffffffffffffffffffffffffff167f8be0079c531659141344cd1fd0a4f28419497f9722a3daafe3b4186f6b6457e060405160405180910390a35050565b60008183612186919061363f565b905092915050565b606060008214156121d6576040518060400160405280600181526020017f30000000000000000000000000000000000000000000000000000000000000008152509050612336565b600082905060005b600082146122085780806121f190613755565b915050600a82612201919061360e565b91506121de565b60008167ffffffffffffffff81111561224a577f4e487b7100000000000000000000000000000000000000000000000000000000600052604160045260246000fd5b6040519080825280601f01601f19166020018201604052801561227c5781602001600182028036833780820191505090505b5090505b6000851461232f576001826122959190613699565b9150600a856122a4919061379e565b60306122b091906135b8565b60f81b8183815181106122ec577f4e487b7100000000000000000000000000000000000000000000000000000000600052603260045260246000fd5b60200101907effffffffffffffffffffffffffffffffffffffffffffffffffffffffffffff1916908160001a905350600a85612328919061360e565b9450612280565b8093505050505b919050565b600073ffffffffffffffffffffffffffffffffffffffff168173ffffffffffffffffffffffffffffffffffffffff1614156123ab576040517f08c379a00000000000000000000000000000000000000000000000000000000081526004016123a2906134a2565b60405180910390fd5b6000600360008560ff1660ff168152602001908152602001600020600084815260200190815260200160002080548060200260200160405190810160405280929190818152602001828054801561245757602002820191906000526020600020905b8160009054906101000a900473ffffffffffffffffffffffffffffffffffffffff1673ffffffffffffffffffffffffffffffffffffffff168152602001906001019080831161240d575b5050505050905060005b815181101561252c578273ffffffffffffffffffffffffffffffffffffffff168282815181106124ba577f4e487b7100000000000000000000000000000000000000000000000000000000600052603260045260246000fd5b602002602001015173ffffffffffffffffffffffffffffffffffffffff161415612519576040517f08c379a000000000000000000000000000000000000000000000000000000000815260040161251090613522565b60405180910390fd5b808061252490613755565b915050612461565b50600360008560ff1660ff1681526020019081526020016000206000848152602001908152602001600020829080600181540180825580915050600190039060005260206000200160009091909190916101000a81548173ffffffffffffffffffffffffffffffffffffffff021916908373ffffffffffffffffffffffffffffffffffffffff16021790555050505050565b600060038460ff1610612606576040517f08c379a00000000000000000000000000000000000000000000000000000000081526004016125fd906134e2565b60405180910390fd5b6000600360008660ff1660ff16815260200190815260200160002060008481526020019081526020016000208054806020026020016040519081016040528092919081815260200182805480156126b257602002820191906000526020600020905b8160009054906101000a900473ffffffffffffffffffffffffffffffffffffffff1673ffffffffffffffffffffffffffffffffffffffff1681526020019060010190808311612668575b505050505090506000805b8251811015612836576000600460008960ff1660ff16815260200190815260200160002054600560008960ff1660ff1681526020019081526020016000205461271060095461270c919061360e565b612716919061363f565b612720919061363f565b9050808361272e91906135b8565b9250600160009054906101000a900473ffffffffffffffffffffffffffffffffffffffff1673ffffffffffffffffffffffffffffffffffffffff166323b872dd338685815181106127a8577f4e487b7100000000000000000000000000000000000000000000000000000000600052603260045260246000fd5b6020026020010151846040518463ffffffff1660e01b81526004016127cf9392919061325e565b602060405180830381600087803b1580156127e957600080fd5b505af11580156127fd573d6000803e3d6000fd5b505050506040513d601f19601f820116820180604052508101906128219190612c2a565b5050808061282e90613755565b9150506126bd565b5080925050509392505050565b60008183612851919061360e565b905092915050565b6128da8363a9059cbb60e01b8484604051602401612878929190613295565b604051602081830303815290604052907bffffffffffffffffffffffffffffffffffffffffffffffffffffffff19166020820180517bffffffffffffffffffffffffffffffffffffffffffffffffffffffff83818316178352505050506128df565b505050565b6000612941826040518060400160405280602081526020017f5361666545524332303a206c6f772d6c6576656c2063616c6c206661696c65648152508573ffffffffffffffffffffffffffffffffffffffff166129a69092919063ffffffff16565b90506000815111156129a157808060200190518101906129619190612c2a565b6129a0576040517f08c379a0000000000000000000000000000000000000000000000000000000008152600401612997906134c2565b60405180910390fd5b5b505050565b60606129b584846000856129be565b90509392505050565b606082471015612a03576040517f08c379a00000000000000000000000000000000000000000000000000000000081526004016129fa90613362565b60405180910390fd5b612a0c85612ad2565b612a4b576040517f08c379a0000000000000000000000000000000000000000000000000000000008152600401612a4290613482565b60405180910390fd5b6000808673ffffffffffffffffffffffffffffffffffffffff168587604051612a7491906131e1565b60006040518083038185875af1925050503d8060008114612ab1576040519150601f19603f3d011682016040523d82523d6000602084013e612ab6565b606091505b5091509150612ac6828286612af5565b92505050949350505050565b6000808273ffffffffffffffffffffffffffffffffffffffff163b119050919050565b60608315612b0557829050612b55565b600083511115612b185782518084602001fd5b816040517f08c379a0000000000000000000000000000000000000000000000000000000008152600401612b4c91906132e0565b60405180910390fd5b9392505050565b600081359050612b6b81613c2d565b92915050565b600081519050612b8081613c44565b92915050565b600081359050612b9581613c5b565b92915050565b600081519050612baa81613c5b565b92915050565b600081359050612bbf81613c72565b92915050565b600060208284031215612bd757600080fd5b6000612be584828501612b5c565b91505092915050565b60008060408385031215612c0157600080fd5b6000612c0f85828601612b5c565b9250506020612c2085828601612b5c565b9150509250929050565b600060208284031215612c3c57600080fd5b6000612c4a84828501612b71565b91505092915050565b600060208284031215612c6557600080fd5b6000612c7384828501612b86565b91505092915050565b600060208284031215612c8e57600080fd5b6000612c9c84828501612b9b565b91505092915050565b60008060408385031215612cb857600080fd5b6000612cc685828601612b86565b9250506020612cd785828601612b5c565b9150509250929050565b600080600060608486031215612cf657600080fd5b6000612d0486828701612b86565b9350506020612d1586828701612b5c565b9250506040612d2686828701612b5c565b9150509250925092565b600080600060608486031215612d4557600080fd5b6000612d5386828701612b86565b9350506020612d6486828701612b86565b9250506040612d7586828701612b86565b9150509250925092565b60008060408385031215612d9257600080fd5b6000612da085828601612bb0565b9250506020612db185828601612b86565b9150509250929050565b600080600060608486031215612dd057600080fd5b6000612dde86828701612bb0565b9350506020612def86828701612b86565b9250506040612e0086828701612b5c565b9150509250925092565b6000612e168383612e22565b60208301905092915050565b612e2b816136cd565b82525050565b612e3a816136cd565b82525050565b6000612e4b82613552565b612e558185613580565b9350612e6083613542565b8060005b83811015612e91578151612e788882612e0a565b9750612e8383613573565b925050600181019050612e64565b5085935050505092915050565b6000612ea98261355d565b612eb38185613591565b9350612ec3818560208601613722565b80840191505092915050565b6000612eda82613568565b612ee4818561359c565b9350612ef4818560208601613722565b612efd8161382d565b840191505092915050565b6000612f1382613568565b612f1d81856135ad565b9350612f2d818560208601613722565b80840191505092915050565b6000612f46601b8361359c565b9150612f518261383e565b602082019050919050565b6000612f6960268361359c565b9150612f7482613867565b604082019050919050565b6000612f8c60158361359c565b9150612f97826138b6565b602082019050919050565b6000612faf60268361359c565b9150612fba826138df565b604082019050919050565b6000612fd260198361359c565b9150612fdd8261392e565b602082019050919050565b6000612ff560198361359c565b915061300082613957565b602082019050919050565b600061301860248361359c565b915061302382613980565b604082019050919050565b600061303b60208361359c565b9150613046826139cf565b602082019050919050565b600061305e601b8361359c565b9150613069826139f8565b602082019050919050565b6000613081601a8361359c565b915061308c82613a21565b602082019050919050565b60006130a4601e8361359c565b91506130af82613a4a565b602082019050919050565b60006130c760198361359c565b91506130d282613a73565b602082019050919050565b60006130ea601d8361359c565b91506130f582613a9c565b602082019050919050565b600061310d6026836135ad565b915061311882613ac5565b602682019050919050565b6000613130601c8361359c565b915061313b82613b14565b602082019050919050565b6000613153602a8361359c565b915061315e82613b3d565b604082019050919050565b600061317660248361359c565b915061318182613b8c565b604082019050919050565b600061319960188361359c565b91506131a482613bdb565b602082019050919050565b60006131bc601b8361359c565b91506131c782613c04565b602082019050919050565b6131db8161370b565b82525050565b60006131ed8284612e9e565b915081905092915050565b600061320382613100565b915061320f8284612f08565b915081905092915050565b600060208201905061322f6000830184612e31565b92915050565b600060408201905061324a6000830185612e31565b6132576020830184612e31565b9392505050565b60006060820190506132736000830186612e31565b6132806020830185612e31565b61328d60408301846131d2565b949350505050565b60006040820190506132aa6000830185612e31565b6132b760208301846131d2565b9392505050565b600060208201905081810360008301526132d88184612e40565b905092915050565b600060208201905081810360008301526132fa8184612ecf565b905092915050565b6000602082019050818103600083015261331b81612f39565b9050919050565b6000602082019050818103600083015261333b81612f5c565b9050919050565b6000602082019050818103600083015261335b81612f7f565b9050919050565b6000602082019050818103600083015261337b81612fa2565b9050919050565b6000602082019050818103600083015261339b81612fc5565b9050919050565b600060208201905081810360008301526133bb81612fe8565b9050919050565b600060208201905081810360008301526133db8161300b565b9050919050565b600060208201905081810360008301526133fb8161302e565b9050919050565b6000602082019050818103600083015261341b81613051565b9050919050565b6000602082019050818103600083015261343b81613074565b9050919050565b6000602082019050818103600083015261345b81613097565b9050919050565b6000602082019050818103600083015261347b816130ba565b9050919050565b6000602082019050818103600083015261349b816130dd565b9050919050565b600060208201905081810360008301526134bb81613123565b9050919050565b600060208201905081810360008301526134db81613146565b9050919050565b600060208201905081810360008301526134fb81613169565b9050919050565b6000602082019050818103600083015261351b8161318c565b9050919050565b6000602082019050818103600083015261353b816131af565b9050919050565b6000819050602082019050919050565b600081519050919050565b600081519050919050565b600081519050919050565b6000602082019050919050565b600082825260208201905092915050565b600081905092915050565b600082825260208201905092915050565b600081905092915050565b60006135c38261370b565b91506135ce8361370b565b9250827fffffffffffffffffffffffffffffffffffffffffffffffffffffffffffffffff03821115613603576136026137cf565b5b828201905092915050565b60006136198261370b565b91506136248361370b565b925082613634576136336137fe565b5b828204905092915050565b600061364a8261370b565b91506136558361370b565b9250817fffffffffffffffffffffffffffffffffffffffffffffffffffffffffffffffff048311821515161561368e5761368d6137cf565b5b828202905092915050565b60006136a48261370b565b91506136af8361370b565b9250828210156136c2576136c16137cf565b5b828203905092915050565b60006136d8826136eb565b9050919050565b60008115159050919050565b600073ffffffffffffffffffffffffffffffffffffffff82169050919050565b6000819050919050565b600060ff82169050919050565b60005b83811015613740578082015181840152602081019050613725565b8381111561374f576000848401525b50505050565b60006137608261370b565b91507fffffffffffffffffffffffffffffffffffffffffffffffffffffffffffffffff821415613793576137926137cf565b5b600182019050919050565b60006137a98261370b565b91506137b48361370b565b9250826137c4576137c36137fe565b5b828206905092915050565b7f4e487b7100000000000000000000000000000000000000000000000000000000600052601160045260246000fd5b7f4e487b7100000000000000000000000000000000000000000000000000000000600052601260045260246000fd5b6000601f19601f8301169050919050565b7f546f6b656e20746f20647261696e2062616c616e636520697320300000000000600082015250565b7f4f776e61626c653a206e6577206f776e657220697320746865207a65726f206160008201527f6464726573730000000000000000000000000000000000000000000000000000602082015250565b7f596f7520617265206e6f7420746865206f776e65720000000000000000000000600082015250565b7f416464726573733a20696e73756666696369656e742062616c616e636520666f60008201527f722063616c6c0000000000000000000000000000000000000000000000000000602082015250565b7f54686520696e766573746f72206973206e6f7420666f756e6400000000000000600082015250565b7f4f776e657220697320746865207a65726f206164647265737300000000000000600082015250565b7f54686520616c6c6f77616e636520616d6f756e7420697320696e73756666696360008201527f69656e7400000000000000000000000000000000000000000000000000000000602082015250565b7f4f776e61626c653a2063616c6c6572206973206e6f7420746865206f776e6572600082015250565b7f4164647265737320697320746865207a65726f20616464726573730000000000600082015250565b7f52656164657220697320746865207a65726f2061646472657373000000000000600082015250565b7f546865206f776e6572206164647265737320697320696e636f72726563740000600082015250565b7f5468652061727469636c6520776173206e6f7420666f756e6400000000000000600082015250565b7f416464726573733a2063616c6c20746f206e6f6e2d636f6e7472616374000000600082015250565b7f546865206e756d626572206f6620696e766573746f7273206973206c696d697460008201527f656420746f200000000000000000000000000000000000000000000000000000602082015250565b7f496e766573746f7220697320746865207a65726f206164647265737300000000600082015250565b7f5361666545524332303a204552433230206f7065726174696f6e20646964206e60008201527f6f74207375636365656400000000000000000000000000000000000000000000602082015250565b7f546865726520617265206f6e6c792033207479706573206f6620696e7665737460008201527f6d656e7400000000000000000000000000000000000000000000000000000000602082015250565b7f4f776e657220616c726561647920686173207368617265730000000000000000600082015250565b7f496e766573746f7220616c726561647920686173207368617265730000000000600082015250565b613c36816136cd565b8114613c4157600080fd5b50565b613c4d816136df565b8114613c5857600080fd5b50565b613c648161370b565b8114613c6f57600080fd5b50565b613c7b81613715565b8114613c8657600080fd5b5056fea264697066735822122082a9abb8360031ff47ff1df299cdf37ba63ec3b32ff165872cd487b1e16eed6664736f6c63430008040033",
  "linkReferences": {},
  "deployedLinkReferences": {}
}